{
  "contractName": "TasksContract",
  "abi": [
    {
      "inputs": [],
      "stateMutability": "nonpayable",
      "type": "constructor"
    },
    {
      "anonymous": false,
      "inputs": [
        {
          "indexed": false,
          "internalType": "uint256",
          "name": "id",
          "type": "uint256"
        },
        {
          "indexed": false,
          "internalType": "string",
          "name": "title",
          "type": "string"
        },
        {
          "indexed": false,
          "internalType": "string",
          "name": "description",
          "type": "string"
        },
        {
          "indexed": false,
          "internalType": "bool",
          "name": "state",
          "type": "bool"
        },
        {
          "indexed": false,
          "internalType": "uint256",
          "name": "createdAt",
          "type": "uint256"
        },
        {
          "indexed": false,
          "internalType": "uint256",
          "name": "doneAt",
          "type": "uint256"
        }
      ],
      "name": "NewTaskCreated",
      "type": "event"
    },
    {
      "anonymous": false,
      "inputs": [
        {
          "indexed": false,
          "internalType": "uint256",
          "name": "id",
          "type": "uint256"
        },
        {
          "indexed": false,
          "internalType": "bool",
          "name": "done",
          "type": "bool"
        },
        {
          "indexed": false,
          "internalType": "uint256",
          "name": "doneAt",
          "type": "uint256"
        }
      ],
      "name": "StateToggled",
      "type": "event"
    },
    {
      "inputs": [
        {
          "internalType": "uint256",
          "name": "",
          "type": "uint256"
        }
      ],
      "name": "tasks",
      "outputs": [
        {
          "internalType": "uint256",
          "name": "id",
          "type": "uint256"
        },
        {
          "internalType": "string",
          "name": "title",
          "type": "string"
        },
        {
          "internalType": "string",
          "name": "description",
          "type": "string"
        },
        {
          "internalType": "bool",
          "name": "state",
          "type": "bool"
        },
        {
          "internalType": "uint256",
          "name": "createdAt",
          "type": "uint256"
        },
        {
          "internalType": "uint256",
          "name": "doneAt",
          "type": "uint256"
        }
      ],
      "stateMutability": "view",
      "type": "function",
      "constant": true
    },
    {
      "inputs": [],
      "name": "tasksCounter",
      "outputs": [
        {
          "internalType": "uint256",
          "name": "",
          "type": "uint256"
        }
      ],
      "stateMutability": "view",
      "type": "function",
      "constant": true
    },
    {
      "inputs": [
        {
          "internalType": "string",
          "name": "_title",
          "type": "string"
        },
        {
          "internalType": "string",
          "name": "_description",
          "type": "string"
        }
      ],
      "name": "createTask",
      "outputs": [],
      "stateMutability": "nonpayable",
      "type": "function"
    },
    {
      "inputs": [
        {
          "internalType": "uint256",
          "name": "_id",
          "type": "uint256"
        }
      ],
      "name": "toggleState",
      "outputs": [],
      "stateMutability": "nonpayable",
      "type": "function"
    }
  ],
  "bytecode": "0x60806040523480156200001157600080fd5b506200008e6040518060400160405280600681526020017f7461736b203100000000000000000000000000000000000000000000000000008152506040518060400160405280600f81526020017f746f20646f20736f6d657468696e6700000000000000000000000000000000008152506200009460201b60201c565b620004cc565b6040518060c0016040528060005481526020018381526020018281526020016000151581526020014281526020016000815250600160008054815260200190815260200160002060008201518160000155602082015181600101908051906020019062000103929190620001be565b50604082015181600201908051906020019062000122929190620001be565b5060608201518160030160006101000a81548160ff0219169083151502179055506080820151816004015560a082015181600501559050506000808154809291906200016e906200040f565b91905055507f774b79046e6c06962e46e41cdab823c2aa164c11777d0c938330d68462ae617460005483836000426000604051620001b296959493929190620002e2565b60405180910390a15050565b828054620001cc90620003d9565b90600052602060002090601f016020900481019282620001f057600085556200023c565b82601f106200020b57805160ff19168380011785556200023c565b828001600101855582156200023c579182015b828111156200023b5782518255916020019190600101906200021e565b5b5090506200024b91906200024f565b5090565b5b808211156200026a57600081600090555060010162000250565b5090565b620002798162000379565b82525050565b6200028a816200038f565b82525050565b60006200029d826200035d565b620002a9818562000368565b9350620002bb818560208601620003a3565b620002c681620004bb565b840191505092915050565b620002dc8162000385565b82525050565b600060c082019050620002f96000830189620002d1565b81810360208301526200030d818862000290565b9050818103604083015262000323818762000290565b90506200033460608301866200026e565b620003436080830185620002d1565b6200035260a08301846200027f565b979650505050505050565b600081519050919050565b600082825260208201905092915050565b60008115159050919050565b6000819050919050565b60006200039c8262000385565b9050919050565b60005b83811015620003c3578082015181840152602081019050620003a6565b83811115620003d3576000848401525b50505050565b60006002820490506001821680620003f257607f821691505b602082108114156200040957620004086200048c565b5b50919050565b60006200041c8262000385565b91507fffffffffffffffffffffffffffffffffffffffffffffffffffffffffffffffff8214156200045257620004516200045d565b5b600182019050919050565b7f4e487b7100000000000000000000000000000000000000000000000000000000600052601160045260246000fd5b7f4e487b7100000000000000000000000000000000000000000000000000000000600052602260045260246000fd5b6000601f19601f8301169050919050565b610a2b80620004dc6000396000f3fe608060405234801561001057600080fd5b506004361061004c5760003560e01c8063292a45851461005157806385c3e7231461006d5780638d9776721461008b578063e8a58f03146100c0575b600080fd5b61006b60048036038101906100669190610569565b6100dc565b005b6100756101fe565b6040516100829190610674565b60405180910390f35b6100a560048036038101906100a091906105e1565b610204565b6040516100b796959493929190610735565b60405180910390f35b6100da60048036038101906100d591906105e1565b61035d565b005b6040518060c00160405280600054815260200183815260200182815260200160001515815260200142815260200160008152506001600080548152602001908152602001600020600082015181600001556020820151816001019080519060200190610149929190610441565b506040820151816002019080519060200190610166929190610441565b5060608201518160030160006101000a81548160ff0219169083151502179055506080820151816004015560a082015181600501559050506000808154809291906101b0906108e3565b91905055507f774b79046e6c06962e46e41cdab823c2aa164c11777d0c938330d68462ae6174600054838360004260006040516101f2969594939291906106c6565b60405180910390a15050565b60005481565b600160205280600052604060002060009150905080600001549080600101805461022d90610880565b80601f016020809104026020016040519081016040528092919081815260200182805461025990610880565b80156102a65780601f1061027b576101008083540402835291602001916102a6565b820191906000526020600020905b81548152906001019060200180831161028957829003601f168201915b5050505050908060020180546102bb90610880565b80601f01602080910402602001604051908101604052809291908181526020018280546102e790610880565b80156103345780601f1061030957610100808354040283529160200191610334565b820191906000526020600020905b81548152906001019060200180831161031757829003601f168201915b5050505050908060030160009054906101000a900460ff16908060040154908060050154905086565b6001600082815260200190815260200160002060030160009054906101000a900460ff16156001600083815260200190815260200160002060030160006101000a81548160ff0219169083151502179055504260016000838152602001908152602001600020600501819055507f6d6e5a9c91ed61a53766565f432834181db1571a617a8ac2d7f87cc6cd56e0ce816001600084815260200190815260200160002060030160009054906101000a900460ff1660016000858152602001908152602001600020600501546040516104369392919061068f565b60405180910390a150565b82805461044d90610880565b90600052602060002090601f01602090048101928261046f57600085556104b6565b82601f1061048857805160ff19168380011785556104b6565b828001600101855582156104b6579182015b828111156104b557825182559160200191906001019061049a565b5b5090506104c391906104c7565b5090565b5b808211156104e05760008160009055506001016104c8565b5090565b60006104f76104f2846107c9565b6107a4565b905082815260208101848484011115610513576105126109be565b5b61051e84828561083e565b509392505050565b600082601f83011261053b5761053a6109b9565b5b813561054b8482602086016104e4565b91505092915050565b600081359050610563816109de565b92915050565b600080604083850312156105805761057f6109c8565b5b600083013567ffffffffffffffff81111561059e5761059d6109c3565b5b6105aa85828601610526565b925050602083013567ffffffffffffffff8111156105cb576105ca6109c3565b5b6105d785828601610526565b9150509250929050565b6000602082840312156105f7576105f66109c8565b5b600061060584828501610554565b91505092915050565b61061781610816565b82525050565b6106268161082c565b82525050565b6000610637826107fa565b6106418185610805565b935061065181856020860161084d565b61065a816109cd565b840191505092915050565b61066e81610822565b82525050565b60006020820190506106896000830184610665565b92915050565b60006060820190506106a46000830186610665565b6106b1602083018561060e565b6106be6040830184610665565b949350505050565b600060c0820190506106db6000830189610665565b81810360208301526106ed818861062c565b90508181036040830152610701818761062c565b9050610710606083018661060e565b61071d6080830185610665565b61072a60a083018461061d565b979650505050505050565b600060c08201905061074a6000830189610665565b818103602083015261075c818861062c565b90508181036040830152610770818761062c565b905061077f606083018661060e565b61078c6080830185610665565b61079960a0830184610665565b979650505050505050565b60006107ae6107bf565b90506107ba82826108b2565b919050565b6000604051905090565b600067ffffffffffffffff8211156107e4576107e361098a565b5b6107ed826109cd565b9050602081019050919050565b600081519050919050565b600082825260208201905092915050565b60008115159050919050565b6000819050919050565b600061083782610822565b9050919050565b82818337600083830152505050565b60005b8381101561086b578082015181840152602081019050610850565b8381111561087a576000848401525b50505050565b6000600282049050600182168061089857607f821691505b602082108114156108ac576108ab61095b565b5b50919050565b6108bb826109cd565b810181811067ffffffffffffffff821117156108da576108d961098a565b5b80604052505050565b60006108ee82610822565b91507fffffffffffffffffffffffffffffffffffffffffffffffffffffffffffffffff8214156109215761092061092c565b5b600182019050919050565b7f4e487b7100000000000000000000000000000000000000000000000000000000600052601160045260246000fd5b7f4e487b7100000000000000000000000000000000000000000000000000000000600052602260045260246000fd5b7f4e487b7100000000000000000000000000000000000000000000000000000000600052604160045260246000fd5b600080fd5b600080fd5b600080fd5b600080fd5b6000601f19601f8301169050919050565b6109e781610822565b81146109f257600080fd5b5056fea26469706673582212202f3b6d3c1d19aba6a3e55c604d2691f4c08201bbded964f9f15b618a3a9fbc4264736f6c63430008060033",
  "immutableReferences": {},
  "source": "// SPDX-License-Identifier: MIT\r\npragma solidity ^0.8.6;\r\n\r\ncontract TasksContract {\r\n    uint256 public tasksCounter;\r\n\r\n    struct Task {\r\n        uint256 id;\r\n        string title;\r\n        string description;\r\n        bool state; // true if done, else false\r\n        uint256 createdAt;\r\n        uint256 doneAt; // when task was made\r\n    }\r\n\r\n    mapping(uint256 => Task) public tasks;\r\n\r\n    constructor() {\r\n        createTask(\"task 1\", \"to do something\");\r\n    }\r\n\r\n    // Events\r\n\r\n    event NewTaskCreated(\r\n        uint256 id,\r\n        string title,\r\n        string description,\r\n        bool state,\r\n        uint256 createdAt,\r\n        uint256 doneAt\r\n    );\r\n\r\n    event StateToggled(uint256 id, bool done, uint256 doneAt);\r\n\r\n    // Operations\r\n    function createTask(string memory _title, string memory _description)\r\n        public\r\n    {\r\n        tasks[tasksCounter] = Task(\r\n            tasksCounter,\r\n            _title,\r\n            _description,\r\n            false,\r\n            block.timestamp,\r\n            0\r\n        );\r\n        tasksCounter++;\r\n        emit NewTaskCreated(\r\n            tasksCounter,\r\n            _title,\r\n            _description,\r\n            false,\r\n            block.timestamp,\r\n            0\r\n        );\r\n    }\r\n\r\n    // Helpers\r\n    function toggleState(uint256 _id) public {\r\n        tasks[_id].state = !tasks[_id].state;\r\n        tasks[_id].doneAt = block.timestamp;\r\n        emit StateToggled(_id, tasks[_id].state, tasks[_id].doneAt);\r\n    }\r\n}\r\n",
  "sourcePath": "C:\\Users\\wrom\\praclabs\\pracsol\\contracts\\TasksContract.sol",
  "compiler": {
    "name": "solc",
    "version": "0.8.6+commit.11564f7e.Emscripten.clang"
  },
  "schemaVersion": "3.4.10",
  "updatedAt": "2022-10-15T23:26:34.181Z",
  "networkType": "ethereum",
  "devdoc": {
    "kind": "dev",
    "methods": {},
    "version": 1
  },
  "userdoc": {
    "kind": "user",
    "methods": {},
    "version": 1
  }
}